:100000000C94E1000C94FE000C94FE000C94FE0095
:100010000C94FE000C94FE000C94FE000C94FE0068
:100020000C94FE000C94FE000C94FE000C94FE0058
:100030000C94FE000C94FE000C94FE000C94FE0048
:100040000C94FE000C94FE000C94FE000C94FE0038
:100050000C94FE000C94FE000C94FE000C94FE0028
:100060000C94FE000C94FE006B01510151015101F2
:1000700051015101510151017401510151015101CD
:1000800051015101510151017D01510151015101B4
:10009000510151015101510186015101510151019B
:1000A00051015101510151018F0151015101510182
:1000B0005101510151015101980151015101510169
:1000C0005101510151015101A10151015101510150
:1000D0005101510151015101AA0151015101510137
:1000E0005101510151015101B3015101510151011E
:1000F0005101510151015101BC0151015101510105
:1001000051015101510151016201444154412046C4
:10011000524F4D20454550524F4D3A202573200AED
:10012000004E2F4120253032580A004D52204441C4
:1001300054412B522C204E414B0A004D5220444139
:1001400054412B522C2041434B0A004D5220534C1A
:10015000412B522C204E414B0A004D5220534C4112
:100160002B522C2041434B0A004D54204441544112
:100170002B572C204E414B0A004D542044415441F2
:100180002B572C2041434B0A004D5420534C412BFC
:10019000572C204E414B0A004D5420534C412B57B5
:1001A0002C2041434B0A004E4F4152422F4E414BAF
:1001B0000A00524553544152540A00535441525478
:1001C0000A0011241FBECFEFD8E0DEBFCDBF11E083
:1001D000A0E0B1E0E0EFFBE002C005900D92AE3090
:1001E000B107D9F721E0AEE0B1E001C01D92AF3117
:1001F000B207E1F70E94AC020C94F6050C940000E3
:10020000CF93C82F8A3051F08091C00085FFFCCF7A
:10021000C093C60080E090E0CF91089560E070E068
:100220008DE00E940001F0CF1092C50089E180931B
:10023000C4001092C00088E18093C10086E08093E2
:10024000C20080E091E090931C0180931B0108950F
:100250008091C00087FFFCCF8091C600089508956B
:10026000ECE7F0E080E68083808180838BE88093F8
:100270007A00089580930E01089580910E010895EB
:10028000089584E08093BC0088E48093B8001092C5
:10029000B9000895482F50E0FA013897E135F1058B
:1002A00068F01F928F9381E291E09F938F930E9459
:1002B00008030F900F900F900F900895EC5CFF4F84
:1002C0000C9402038BE291E09F938F930E940803AA
:1002D0000F900F9008958BEB91E09F938F930E9466
:1002E00008030F900F90089582EB91E09F938F93F6
:1002F0000E9408030F900F90089588E991E09F9362
:100300008F930E9408030F900F90089589E891E061
:100310009F938F930E9408030F900F90089589E791
:1003200091E09F938F930E9408030F900F90089580
:1003300089E691E09F938F930E9408030F900F909E
:10034000089587EA91E09F938F930E9408030F908E
:100350000F9008958AE591E09F938F930E94080380
:100360000F900F9008958BE491E09F938F930E94DC
:1003700008030F900F9008958BE391E09F938F9364
:100380000E9408030F900F90089584EA8093BC00A8
:100390008091BC0087FFFCCF089584E98093BC0066
:1003A0008091BC0084FDFCCF08958091B900887FC6
:1003B00008958E7F6170682B6093BB0084E8809302
:1003C000BC008091BC0087FFFCCF08958093BB00E8
:1003D00084E88093BC008091BC0087FFFCCF089527
:1003E00034EA20EA94E88091B900887F883199F056
:1003F0003093BC008091BC0087FFFCCF2093BB00F2
:100400009093BC008091BC0087FFFCCF8091B90025
:10041000887F883169F70895CF93C82F84EA809345
:10042000BC008091BC0087FFFCCF8091B900887F21
:100430000E944A0180EA8093BB0084E88093BC005C
:100440008091BC0087FFFCCF8091B900887F0E941B
:100450004A01C093BB0084E88093BC008091BC003B
:1004600087FFFCCF8091B900887F0E944A0184EA0F
:100470008093BC008091BC0087FFFCCF81EA809311
:10048000BB0084E88093BC008091BC0087FFFCCF58
:100490008091B900887F0E944A0184E88093BC0063
:1004A0008091BC0087FFFCCFC091BB008091B90058
:1004B000887F0E944A0184E98093BC008091BC003F
:1004C00084FDFCCF8C2FCF910895CF93DF93D82F4D
:1004D000C62F84EA8093BC008091BC0087FFFCCFCC
:1004E0008091B900887F0E944A0180EA8093BB0016
:1004F00084E88093BC008091BC0087FFFCCF809192
:10050000B900887F0E944A01D093BB0084E88093A1
:10051000BC008091BC0087FFFCCF8091B900887F30
:100520000E944A01C093BB0084E88093BC00809184
:10053000BC0087FFFCCF8091B900887F0E944A01F0
:1005400084E98093BC008091BC0084FDFCCFDF91E6
:10055000CF910895089508950E9441010E941401C9
:10056000789464E580E70E9465020E94F00168E4E7
:1005700081E70E9465020E94F0016FE482E70E9419
:1005800065020E94F0016DE483E70E9465020E940B
:10059000F00161E484E70E9465020E94F00163E5D6
:1005A00085E70E9465020E94F00180E70E940C022C
:1005B000CFE0D1E080930F0181E70E940C0280938D
:1005C000100182E70E940C028093110183E70E94D0
:1005D0000C028093120184E70E940C0280931301A5
:1005E00085E70E940C0280931401DF93CF938AE089
:1005F00091E09F938F930E9408030F900F900F90AC
:100600000F90FFCFEE0FFF1F0590F491E02D09949E
:10061000A0E0B0E0EEE0F3E00C94CD05AE01495F60
:100620005F4FDA016D917D91AD0109E111E0F801B3
:1006300082819381DC0113962C9113972860139685
:100640002C930E942E03D8011296ED91FC911397E2
:100650002381277F2383E4E00C94E905ABE0B0E03D
:10066000E4E3F3E00C94BF056C017B018A01FC011B
:1006700017821682838181FFCCC1CE0101963C0195
:10068000F6019381F70193FD859193FF81917F019D
:10069000882309F4BAC1853239F493FD859193FF1B
:1006A00081917F01853229F4B60190E00E942505F1
:1006B000E7CF912C212C312CFFE1F315D8F08B32B0
:1006C00079F038F4803279F08332A1F4232D20615F
:1006D0001DC08D3261F0803369F4232D216016C076
:1006E000832D8260382EE32DE4603E2E2AC0F32D48
:1006F000F8601DC037FC2DC020ED280F2A3040F0D7
:100700008E32B9F436FC81C1232D2064322E19C0FB
:1007100036FE06C08AE0989E200D1124922E11C04C
:10072000EAE02E9E200D1124222EF32DF0623F2EA2
:1007300008C08C3621F4832D8068382E02C088369C
:1007400041F4F70193FD859193FF81917F01811120
:10075000B3CF982F9F7D9554933028F40C5F1F4F93
:100760009FE399830DC0833631F0833771F0833571
:1007700009F059C021C0F801808189830E5F1F4FA5
:1007800088248394912C530113C02801F2E04F0E6A
:10079000511CF801A080B18036FE03C0692D70E0C5
:1007A00002C06FEF7FEFC5010E941A054C01820164
:1007B000F32DFF773F2E16C0280122E0420E511C78
:1007C000F801A080B18036FE03C0692D70E002C040
:1007D0006FEF7FEFC5010E940F054C01F32DF0680C
:1007E0003F2E820133FC1BC0822D90E088169906B3
:1007F000B0F4B60180E290E00E9425052A94F4CF7F
:10080000F50137FC859137FE81915F01B60190E0DB
:100810000E94250521102A9421E0821A9108811452
:10082000910471F7E8C0843611F0893641F5F8017A
:1008300037FE07C060817181828193810C5F1F4FF9
:1008400008C060817181072E000C880B990B0E5F28
:100850001F4FF32DFF763F2E97FF09C0909580958F
:10086000709561957F4F8F4F9F4FF0683F2E2AE024
:1008700030E0A3010E946105882E861845C08537A7
:1008800031F4232D2F7EB22E2AE030E025C0932DA7
:10089000997FB92E8F36C1F018F4883579F0B5C03C
:1008A000803719F0883721F0B0C0E92FE061BE2E03
:1008B000B4FE0DC0FB2DF460BF2E09C034FE0AC08B
:1008C000292F2660B22E06C028E030E005C020E1C6
:1008D00030E002C020E132E0F801B7FE07C06081DD
:1008E0007181828193810C5F1F4F06C0608171818D
:1008F00080E090E00E5F1F4FA3010E946105882EEB
:100900008618FB2DFF773F2E36FE0DC0232D2E7F40
:10091000A22E891458F434FE0BC032FC09C0832D7A
:100920008E7EA82E05C0B82CA32C03C0B82C01C005
:10093000B92CA4FE0FC0FE01E80DF11D80818033AB
:1009400021F49A2D997EA92E09C0A2FE06C0B39467
:10095000B39404C08A2D867809F0B394A3FC11C027
:10096000A0FE06C0B21488F4280C922C9B180EC06E
:10097000B21460F4B60180E290E00E942505B394C1
:10098000F7CFB21418F42B1802C0982C212CA4FE17
:1009900010C0B60180E390E00E942505A2FE17C0BA
:1009A000A1FC03C088E790E002C088E590E0B601B2
:1009B0000CC08A2D867859F0A1FE02C08BE201C0DE
:1009C00080E2A7FC8DE2B60190E00E942505891423
:1009D00038F4B60180E390E00E9425059A94F7CFA1
:1009E0008A94F301E80DF11D8081B60190E00E9428
:1009F00025058110F5CF222009F442CEB60180E210
:100A000090E00E9425052A94F6CFF6018681978111
:100A100002C08FEF9FEF2B96E2E10C94DB05FC0107
:100A20000590615070400110D8F7809590958E0F19
:100A30009F1F0895FC016150704001900110D8F78C
:100A4000809590958E0F9F1F08950F931F93CF93BE
:100A5000DF93FB01238121FD03C08FEF9FEF2CC0AB
:100A600022FF16C0468157812481358142175307E2
:100A700044F4A081B1819D012F5F3F4F31832083DA
:100A80008C93268137812F5F3F4F3783268314C095
:100A90008B01EC01FB010084F185E02D0995892B88
:100AA000E1F6D80116968D919C91179701961796AD
:100AB0009C938E931697CE01DF91CF911F910F914A
:100AC0000895FA01AA27283051F1203181F1E894E4
:100AD0006F936E7F6E5F7F4F8F4F9F4FAF4FB1E031
:100AE0003ED0B4E03CD0670F781F891F9A1FA11D2C
:100AF000680F791F8A1F911DA11D6A0F711D811D2D
:100B0000911DA11D20D009F468943F912AE0269FF1
:100B100011243019305D3193DEF6CF010895462F50
:100B20004770405D4193B3E00FD0C9F7F6CF462F31
:100B30004F70405D4A3318F0495D31FD405241939A
:100B400002D0A9F7EACFB4E0A69597958795779557
:100B50006795BA95C9F700976105710508959B01DE
:100B6000AC010A2E06945795479537952795BA9567
:100B7000C9F7620F731F841F951FA01D08952F9240
:100B80003F924F925F926F927F928F929F92AF921D
:100B9000BF92CF92DF92EF92FF920F931F93CF936A
:100BA000DF93CDB7DEB7CA1BDB0B0FB6F894DEBF01
:100BB0000FBECDBF09942A88398848885F846E8427
:100BC0007D848C849B84AA84B984C884DF80EE8071
:100BD000FD800C811B81AA81B981CE0FD11D0FB67A
:100BE000F894DEBF0FBECDBFED010895F894FFCF9E
:0E0BF0000000000200000000000100000000F4
:00000001FF
